{
  "contractName": "ReceiveToken",
  "abi": [
    {
      "inputs": [],
      "stateMutability": "nonpayable",
      "type": "constructor"
    },
    {
      "anonymous": false,
      "inputs": [
        {
          "indexed": false,
          "internalType": "address",
          "name": "_senderAddress",
          "type": "address"
        },
        {
          "indexed": false,
          "internalType": "uint256",
          "name": "_noOfTokens",
          "type": "uint256"
        }
      ],
      "name": "ackReceivedTokens",
      "type": "event"
    },
    {
      "anonymous": false,
      "inputs": [
        {
          "indexed": false,
          "internalType": "uint256",
          "name": "contractTotalBalance",
          "type": "uint256"
        },
        {
          "indexed": false,
          "internalType": "uint256",
          "name": "userTotalBalance",
          "type": "uint256"
        }
      ],
      "name": "totalBalanceUpdate",
      "type": "event"
    },
    {
      "inputs": [],
      "name": "contractOwner",
      "outputs": [
        {
          "internalType": "address",
          "name": "",
          "type": "address"
        }
      ],
      "stateMutability": "view",
      "type": "function",
      "constant": true
    },
    {
      "inputs": [],
      "name": "contractTotalBalance",
      "outputs": [
        {
          "internalType": "uint256",
          "name": "",
          "type": "uint256"
        }
      ],
      "stateMutability": "view",
      "type": "function",
      "constant": true
    },
    {
      "inputs": [],
      "name": "token",
      "outputs": [
        {
          "internalType": "contract IERC20",
          "name": "",
          "type": "address"
        }
      ],
      "stateMutability": "view",
      "type": "function",
      "constant": true
    },
    {
      "inputs": [],
      "name": "userTotalBalance",
      "outputs": [
        {
          "internalType": "uint256",
          "name": "",
          "type": "uint256"
        }
      ],
      "stateMutability": "view",
      "type": "function",
      "constant": true
    },
    {
      "inputs": [
        {
          "internalType": "address",
          "name": "",
          "type": "address"
        }
      ],
      "name": "userWallet",
      "outputs": [
        {
          "internalType": "uint256",
          "name": "",
          "type": "uint256"
        }
      ],
      "stateMutability": "view",
      "type": "function",
      "constant": true
    },
    {
      "inputs": [
        {
          "internalType": "address",
          "name": "_tokenAddress",
          "type": "address"
        },
        {
          "internalType": "uint256",
          "name": "_amount",
          "type": "uint256"
        }
      ],
      "name": "receiveToken",
      "outputs": [],
      "stateMutability": "nonpayable",
      "type": "function"
    },
    {
      "inputs": [],
      "name": "swapForEther",
      "outputs": [],
      "stateMutability": "nonpayable",
      "type": "function"
    },
    {
      "inputs": [],
      "name": "withdrawETH",
      "outputs": [],
      "stateMutability": "nonpayable",
      "type": "function"
    }
  ],
  "bytecode": "0x608060405234801561001057600080fd5b5033600360006101000a81548173ffffffffffffffffffffffffffffffffffffffff021916908373ffffffffffffffffffffffffffffffffffffffff1602179055506105e8806100616000396000f3fe608060405234801561001057600080fd5b50600436106100885760003560e01c8063e086e5ec1161005b578063e086e5ec14610137578063fc0c546a14610141578063fc9dbc6914610175578063fcff8ae9146101cd57610088565b8063433771dd1461008d578063785f9bdf146100ab57806397235a1e146100b5578063ce606ee014610103575b600080fd5b6100956101eb565b6040518082815260200191505060405180910390f35b6100b36101f1565b005b610101600480360360408110156100cb57600080fd5b81019080803573ffffffffffffffffffffffffffffffffffffffff169060200190929190803590602001909291905050506101f3565b005b61010b610548565b604051808273ffffffffffffffffffffffffffffffffffffffff16815260200191505060405180910390f35b61013f61056e565b005b610149610570565b604051808273ffffffffffffffffffffffffffffffffffffffff16815260200191505060405180910390f35b6101b76004803603602081101561018b57600080fd5b81019080803573ffffffffffffffffffffffffffffffffffffffff169060200190929190505050610594565b6040518082815260200191505060405180910390f35b6101d56105ac565b6040518082815260200191505060405180910390f35b60015481565b565b6000339050826000806101000a81548173ffffffffffffffffffffffffffffffffffffffff021916908373ffffffffffffffffffffffffffffffffffffffff16021790555081600460008373ffffffffffffffffffffffffffffffffffffffff1673ffffffffffffffffffffffffffffffffffffffff1681526020019081526020016000206000828254019250508190555060008054906101000a900473ffffffffffffffffffffffffffffffffffffffff1673ffffffffffffffffffffffffffffffffffffffff166323b872dd8230856040518463ffffffff1660e01b8152600401808473ffffffffffffffffffffffffffffffffffffffff1681526020018373ffffffffffffffffffffffffffffffffffffffff1681526020018281526020019350505050602060405180830381600087803b15801561033457600080fd5b505af1158015610348573d6000803e3d6000fd5b505050506040513d602081101561035e57600080fd5b81019080805190602001909291905050505060008054906101000a900473ffffffffffffffffffffffffffffffffffffffff1673ffffffffffffffffffffffffffffffffffffffff166370a08231306040518263ffffffff1660e01b8152600401808273ffffffffffffffffffffffffffffffffffffffff16815260200191505060206040518083038186803b1580156103f757600080fd5b505afa15801561040b573d6000803e3d6000fd5b505050506040513d602081101561042157600080fd5b810190808051906020019092919050505060018190555060008054906101000a900473ffffffffffffffffffffffffffffffffffffffff1673ffffffffffffffffffffffffffffffffffffffff166370a08231826040518263ffffffff1660e01b8152600401808273ffffffffffffffffffffffffffffffffffffffff16815260200191505060206040518083038186803b1580156104bf57600080fd5b505afa1580156104d3573d6000803e3d6000fd5b505050506040513d60208110156104e957600080fd5b81019080805190602001909291905050506002819055507fc5184767d884a7319871dce20e6c53384aada8299c3c814b6f8b4c1b7d81a2c3600154600254604051808381526020018281526020019250505060405180910390a1505050565b600360009054906101000a900473ffffffffffffffffffffffffffffffffffffffff1681565b565b60008054906101000a900473ffffffffffffffffffffffffffffffffffffffff1681565b60046020528060005260406000206000915090505481565b6002548156fea2646970667358221220ca632d02787d4f2042cd3f9024d04054a0c55052eda62b19a18c0d649460590564736f6c634300060c0033",
  "immutableReferences": {},
  "source": "pragma solidity >= 0.6.0;\r\n\r\nimport \"../client/node_modules/@openzeppelin/contracts/token/ERC20/IERC20.sol\";\r\n\r\n//dai - ropsten - 0x6b175474e89094c44da98b954eedeac495271d0f\r\n//UNI - ropsten - 0x1f9840a85d5aF5bf1D1762F925BDADdC4201F984\r\n//account1 = 0x7049d60356df2a97d9cf2fed78128b077a00308d\r\n\r\n\r\ncontract ReceiveToken{\r\n    \r\n    IERC20 public token;\r\n    uint public contractTotalBalance;\r\n    uint public userTotalBalance;\r\n    address public contractOwner;\r\n    mapping(address => uint) public userWallet;\r\n\r\n\r\n    event ackReceivedTokens(address _senderAddress, uint _noOfTokens);\r\n    event totalBalanceUpdate(uint contractTotalBalance, uint userTotalBalance);\r\n    \r\n    constructor() public {\r\n        contractOwner = msg.sender;\r\n    }\r\n\r\n    function receiveToken(address _tokenAddress, uint _amount) public{\r\n        address user = msg.sender;\r\n        token = IERC20(_tokenAddress);\r\n        userWallet[user] += _amount;\r\n\r\n        token.transferFrom(user, address(this), _amount);\r\n\r\n        contractTotalBalance = token.balanceOf(address(this));\r\n        userTotalBalance = token.balanceOf(user);\r\n        \r\n\r\n        emit totalBalanceUpdate(contractTotalBalance, userTotalBalance);\r\n        //add a check to see if received token is complaint with ERC20\r\n    }\r\n\r\n    function swapForEther() public{\r\n\r\n    }\r\n\r\n    function withdrawETH() public{\r\n\r\n    }\r\n\r\n}",
  "sourcePath": "C:\\Workspace\\Blockchain\\TokenExchange-Wallet\\contracts\\ReceiveToken.sol",
  "compiler": {
    "name": "solc",
    "version": "0.6.12+commit.27d51765.Emscripten.clang"
  },
  "schemaVersion": "3.4.2",
  "updatedAt": "2021-08-01T13:22:47.839Z",
  "networkType": "ethereum",
  "devdoc": {
    "kind": "dev",
    "methods": {},
    "version": 1
  },
  "userdoc": {
    "kind": "user",
    "methods": {},
    "version": 1
  }
}