{
  "contractName": "ReceiveToken",
  "abi": [
    {
      "inputs": [],
      "stateMutability": "nonpayable",
      "type": "constructor"
    },
    {
      "anonymous": false,
      "inputs": [
        {
          "indexed": false,
          "internalType": "uint256",
          "name": "contractTotalBalance",
          "type": "uint256"
        },
        {
          "indexed": false,
          "internalType": "uint256",
          "name": "userTotalBalance",
          "type": "uint256"
        }
      ],
      "name": "totalBalanceUpdate",
      "type": "event"
    },
    {
      "inputs": [],
      "name": "contractOwner",
      "outputs": [
        {
          "internalType": "address",
          "name": "",
          "type": "address"
        }
      ],
      "stateMutability": "view",
      "type": "function"
    },
    {
      "inputs": [],
      "name": "contractTotalBalance",
      "outputs": [
        {
          "internalType": "uint256",
          "name": "",
          "type": "uint256"
        }
      ],
      "stateMutability": "view",
      "type": "function"
    },
    {
      "inputs": [],
      "name": "router",
      "outputs": [
        {
          "internalType": "contract IUniswapV2Router01",
          "name": "",
          "type": "address"
        }
      ],
      "stateMutability": "view",
      "type": "function"
    },
    {
      "inputs": [],
      "name": "token",
      "outputs": [
        {
          "internalType": "contract IERC20",
          "name": "",
          "type": "address"
        }
      ],
      "stateMutability": "view",
      "type": "function"
    },
    {
      "inputs": [],
      "name": "user",
      "outputs": [
        {
          "internalType": "address",
          "name": "",
          "type": "address"
        }
      ],
      "stateMutability": "view",
      "type": "function"
    },
    {
      "inputs": [],
      "name": "userTotalBalance",
      "outputs": [
        {
          "internalType": "uint256",
          "name": "",
          "type": "uint256"
        }
      ],
      "stateMutability": "view",
      "type": "function"
    },
    {
      "inputs": [
        {
          "internalType": "address",
          "name": "",
          "type": "address"
        }
      ],
      "name": "userWallet",
      "outputs": [
        {
          "internalType": "uint256",
          "name": "",
          "type": "uint256"
        }
      ],
      "stateMutability": "view",
      "type": "function"
    },
    {
      "stateMutability": "payable",
      "type": "receive"
    },
    {
      "inputs": [
        {
          "internalType": "address",
          "name": "_tokenAddress",
          "type": "address"
        },
        {
          "internalType": "uint256",
          "name": "_amount",
          "type": "uint256"
        }
      ],
      "name": "receiveToken",
      "outputs": [],
      "stateMutability": "nonpayable",
      "type": "function"
    },
    {
      "inputs": [],
      "name": "withdrawETH",
      "outputs": [],
      "stateMutability": "nonpayable",
      "type": "function"
    }
  ],
  "bytecode": "0x6080604052737a250d5630b4cf539739df2c5dacb4c659f2488d600160006101000a81548173ffffffffffffffffffffffffffffffffffffffff021916908373ffffffffffffffffffffffffffffffffffffffff16021790555034801561006557600080fd5b5033600460006101000a81548173ffffffffffffffffffffffffffffffffffffffff021916908373ffffffffffffffffffffffffffffffffffffffff160217905550610c2b806100b66000396000f3fe60806040526004361061008a5760003560e01c8063e086e5ec11610059578063e086e5ec1461019e578063f887ea40146101b5578063fc0c546a146101f6578063fc9dbc6914610237578063fcff8ae91461029c57610091565b8063433771dd146100965780634f8632ba146100c157806397235a1e14610102578063ce606ee01461015d57610091565b3661009157005b600080fd5b3480156100a257600080fd5b506100ab6102c7565b6040518082815260200191505060405180910390f35b3480156100cd57600080fd5b506100d66102cd565b604051808273ffffffffffffffffffffffffffffffffffffffff16815260200191505060405180910390f35b34801561010e57600080fd5b5061015b6004803603604081101561012557600080fd5b81019080803573ffffffffffffffffffffffffffffffffffffffff169060200190929190803590602001909291905050506102f3565b005b34801561016957600080fd5b50610172610684565b604051808273ffffffffffffffffffffffffffffffffffffffff16815260200191505060405180910390f35b3480156101aa57600080fd5b506101b36106aa565b005b3480156101c157600080fd5b506101ca610777565b604051808273ffffffffffffffffffffffffffffffffffffffff16815260200191505060405180910390f35b34801561020257600080fd5b5061020b61079d565b604051808273ffffffffffffffffffffffffffffffffffffffff16815260200191505060405180910390f35b34801561024357600080fd5b506102866004803603602081101561025a57600080fd5b81019080803573ffffffffffffffffffffffffffffffffffffffff1690602001909291905050506107c1565b6040518082815260200191505060405180910390f35b3480156102a857600080fd5b506102b16107d9565b6040518082815260200191505060405180910390f35b60025481565b600560009054906101000a900473ffffffffffffffffffffffffffffffffffffffff1681565b33600560006101000a81548173ffffffffffffffffffffffffffffffffffffffff021916908373ffffffffffffffffffffffffffffffffffffffff160217905550816000806101000a81548173ffffffffffffffffffffffffffffffffffffffff021916908373ffffffffffffffffffffffffffffffffffffffff16021790555060008054906101000a900473ffffffffffffffffffffffffffffffffffffffff1673ffffffffffffffffffffffffffffffffffffffff166323b872dd600560009054906101000a900473ffffffffffffffffffffffffffffffffffffffff1630846040518463ffffffff1660e01b8152600401808473ffffffffffffffffffffffffffffffffffffffff1681526020018373ffffffffffffffffffffffffffffffffffffffff1681526020018281526020019350505050602060405180830381600087803b15801561044557600080fd5b505af1158015610459573d6000803e3d6000fd5b505050506040513d602081101561046f57600080fd5b81019080805190602001909291905050505060008054906101000a900473ffffffffffffffffffffffffffffffffffffffff1673ffffffffffffffffffffffffffffffffffffffff166370a08231306040518263ffffffff1660e01b8152600401808273ffffffffffffffffffffffffffffffffffffffff16815260200191505060206040518083038186803b15801561050857600080fd5b505afa15801561051c573d6000803e3d6000fd5b505050506040513d602081101561053257600080fd5b810190808051906020019092919050505060028190555060008054906101000a900473ffffffffffffffffffffffffffffffffffffffff1673ffffffffffffffffffffffffffffffffffffffff166370a08231600560009054906101000a900473ffffffffffffffffffffffffffffffffffffffff166040518263ffffffff1660e01b8152600401808273ffffffffffffffffffffffffffffffffffffffff16815260200191505060206040518083038186803b1580156105f257600080fd5b505afa158015610606573d6000803e3d6000fd5b505050506040513d602081101561061c57600080fd5b81019080805190602001909291905050506003819055507fc5184767d884a7319871dce20e6c53384aada8299c3c814b6f8b4c1b7d81a2c3600254600354604051808381526020018281526020019250505060405180910390a161068082826107df565b5050565b600460009054906101000a900473ffffffffffffffffffffffffffffffffffffffff1681565b6000600660003373ffffffffffffffffffffffffffffffffffffffff1673ffffffffffffffffffffffffffffffffffffffff168152602001908152602001600020819055503373ffffffffffffffffffffffffffffffffffffffff166108fc600660003373ffffffffffffffffffffffffffffffffffffffff1673ffffffffffffffffffffffffffffffffffffffff168152602001908152602001600020549081150290604051600060405180830381858888f19350505050158015610774573d6000803e3d6000fd5b50565b600160009054906101000a900473ffffffffffffffffffffffffffffffffffffffff1681565b60008054906101000a900473ffffffffffffffffffffffffffffffffffffffff1681565b60066020528060005260406000206000915090505481565b60035481565b6060600267ffffffffffffffff811180156107f957600080fd5b506040519080825280602002602001820160405280156108285781602001602082028036833780820191505090505b509050828160008151811061083957fe5b602002602001019073ffffffffffffffffffffffffffffffffffffffff16908173ffffffffffffffffffffffffffffffffffffffff168152505073c02aaa39b223fe8d0a0e5c4f27ead9083c756cc28160018151811061089557fe5b602002602001019073ffffffffffffffffffffffffffffffffffffffff16908173ffffffffffffffffffffffffffffffffffffffff168152505060008054906101000a900473ffffffffffffffffffffffffffffffffffffffff1673ffffffffffffffffffffffffffffffffffffffff1663095ea7b3600160009054906101000a900473ffffffffffffffffffffffffffffffffffffffff16846040518363ffffffff1660e01b8152600401808373ffffffffffffffffffffffffffffffffffffffff16815260200182815260200192505050602060405180830381600087803b15801561098257600080fd5b505af1158015610996573d6000803e3d6000fd5b505050506040513d60208110156109ac57600080fd5b810190808051906020019092919050505050600160009054906101000a900473ffffffffffffffffffffffffffffffffffffffff1673ffffffffffffffffffffffffffffffffffffffff166318cbafe58360008430426040518663ffffffff1660e01b815260040180868152602001858152602001806020018473ffffffffffffffffffffffffffffffffffffffff168152602001838152602001828103825285818151815260200191508051906020019060200280838360005b83811015610a82578082015181840152602081019050610a67565b505050509050019650505050505050600060405180830381600087803b158015610aab57600080fd5b505af1158015610abf573d6000803e3d6000fd5b505050506040513d6000823e3d601f19601f820116820180604052506020811015610ae957600080fd5b8101908080516040519392919084640100000000821115610b0957600080fd5b83820191506020820185811115610b1f57600080fd5b8251866020820283011164010000000082111715610b3c57600080fd5b8083526020830192505050908051906020019060200280838360005b83811015610b73578082015181840152602081019050610b58565b50505050905001604052505050503460066000600560009054906101000a900473ffffffffffffffffffffffffffffffffffffffff1673ffffffffffffffffffffffffffffffffffffffff1673ffffffffffffffffffffffffffffffffffffffff1681526020019081526020016000206000828254019250508190555050505056fea2646970667358221220c2710a361124fbff496bb1b8c257b5ab68e3d83f3b6563cd1fd45bdafbdf3b3f64736f6c634300060c0033",
  "immutableReferences": {},
  "source": "pragma solidity >= 0.6.0;\r\n\r\nimport \"../client/node_modules/@openzeppelin/contracts/token/ERC20/IERC20.sol\";\r\nimport \"../client/node_modules/@uniswap/v2-periphery/contracts/interfaces/IUniswapV2Router02.sol\";\r\n\r\ncontract ReceiveToken{\r\n    \r\n    IERC20 public token;\r\n    IUniswapV2Router01 public router = IUniswapV2Router02(0x7a250d5630B4cF539739dF2C5dAcb4c659F2488D);         //UniSwapRouterAddress\r\n    uint public contractTotalBalance;\r\n    uint public userTotalBalance;\r\n    address public contractOwner;\r\n    address public user;\r\n    mapping(address => uint) public userWallet;\r\n\r\n    event totalBalanceUpdate(uint contractTotalBalance, uint userTotalBalance);\r\n    \r\n    constructor() public {\r\n        contractOwner = msg.sender;\r\n    }\r\n\r\n    function receiveToken(address _tokenAddress, uint _amount) public {\r\n        user = msg.sender;\r\n        token = IERC20(_tokenAddress);\r\n        \r\n        token.transferFrom(user, address(this), _amount);\r\n        contractTotalBalance = token.balanceOf(address(this));\r\n        userTotalBalance = token.balanceOf(user);\r\n        \r\n        emit totalBalanceUpdate(contractTotalBalance, userTotalBalance);\r\n        //add a check to see if received token is complaint with ERC20\r\n        swapForEther(_tokenAddress, _amount);\r\n    }\r\n\r\n    function swapForEther(address _tokenAddress, uint _amount) internal {\r\n        //generates the path to make the swap\r\n        address[] memory path = new address[](2);\r\n        path[0] = _tokenAddress;\r\n        path[1] = 0xC02aaA39b223FE8D0A0e5C4F27eAD9083C756Cc2;     //WETH address;\r\n        //lets the contract trade 'amount' of UNI using the UniswapV2Router01\r\n        token.approve(address(router), _amount);\r\n        \r\n        // token.transferFrom(address(this), address(router), _amount);\r\n        \r\n        // Makes the swap \r\n        router.swapExactTokensForETH(\r\n            _amount,\r\n            0, \r\n            path,\r\n            address(this),\r\n            block.timestamp\r\n        );  \r\n\r\n        userWallet[user] += msg.value;\r\n    }\r\n\r\n    function withdrawETH() public{\r\n        userWallet[msg.sender] = 0;\r\n        msg.sender.transfer(userWallet[msg.sender]);\r\n    }\r\n\r\n    receive() external payable {}    \r\n}",
  "sourcePath": "C:\\Workspace\\Blockchain\\TokenExchange-Wallet\\contracts\\ReceiveToken.sol",
  "compiler": {
    "name": "solc",
    "version": "0.6.12+commit.27d51765.Emscripten.clang"
  },
  "schemaVersion": "3.4.2",
  "updatedAt": "2021-08-02T06:57:19.561Z",
  "devdoc": {
    "kind": "dev",
    "methods": {},
    "version": 1
  },
  "userdoc": {
    "kind": "user",
    "methods": {},
    "version": 1
  }
}